{
  "_format": "hh-sol-artifact-1",
  "contractName": "MyEpicNFT",
  "sourceName": "contracts/MyEpicNFT.sol",
  "abi": [
    {
      "inputs": [],
      "stateMutability": "nonpayable",
      "type": "constructor"
    },
    {
      "anonymous": false,
      "inputs": [
        {
          "indexed": true,
          "internalType": "address",
          "name": "owner",
          "type": "address"
        },
        {
          "indexed": true,
          "internalType": "address",
          "name": "approved",
          "type": "address"
        },
        {
          "indexed": true,
          "internalType": "uint256",
          "name": "tokenId",
          "type": "uint256"
        }
      ],
      "name": "Approval",
      "type": "event"
    },
    {
      "anonymous": false,
      "inputs": [
        {
          "indexed": true,
          "internalType": "address",
          "name": "owner",
          "type": "address"
        },
        {
          "indexed": true,
          "internalType": "address",
          "name": "operator",
          "type": "address"
        },
        {
          "indexed": false,
          "internalType": "bool",
          "name": "approved",
          "type": "bool"
        }
      ],
      "name": "ApprovalForAll",
      "type": "event"
    },
    {
      "anonymous": false,
      "inputs": [
        {
          "indexed": false,
          "internalType": "address",
          "name": "sender",
          "type": "address"
        },
        {
          "indexed": false,
          "internalType": "uint256",
          "name": "tokenId",
          "type": "uint256"
        }
      ],
      "name": "NewEpicNFTMinted",
      "type": "event"
    },
    {
      "anonymous": false,
      "inputs": [
        {
          "indexed": true,
          "internalType": "address",
          "name": "from",
          "type": "address"
        },
        {
          "indexed": true,
          "internalType": "address",
          "name": "to",
          "type": "address"
        },
        {
          "indexed": true,
          "internalType": "uint256",
          "name": "tokenId",
          "type": "uint256"
        }
      ],
      "name": "Transfer",
      "type": "event"
    },
    {
      "inputs": [
        {
          "internalType": "address",
          "name": "to",
          "type": "address"
        },
        {
          "internalType": "uint256",
          "name": "tokenId",
          "type": "uint256"
        }
      ],
      "name": "approve",
      "outputs": [],
      "stateMutability": "nonpayable",
      "type": "function"
    },
    {
      "inputs": [
        {
          "internalType": "address",
          "name": "owner",
          "type": "address"
        }
      ],
      "name": "balanceOf",
      "outputs": [
        {
          "internalType": "uint256",
          "name": "",
          "type": "uint256"
        }
      ],
      "stateMutability": "view",
      "type": "function"
    },
    {
      "inputs": [
        {
          "internalType": "uint256",
          "name": "tokenId",
          "type": "uint256"
        }
      ],
      "name": "getApproved",
      "outputs": [
        {
          "internalType": "address",
          "name": "",
          "type": "address"
        }
      ],
      "stateMutability": "view",
      "type": "function"
    },
    {
      "inputs": [],
      "name": "getTotalNFTsMintedSoFar",
      "outputs": [
        {
          "internalType": "uint256",
          "name": "",
          "type": "uint256"
        }
      ],
      "stateMutability": "view",
      "type": "function"
    },
    {
      "inputs": [
        {
          "internalType": "address",
          "name": "owner",
          "type": "address"
        },
        {
          "internalType": "address",
          "name": "operator",
          "type": "address"
        }
      ],
      "name": "isApprovedForAll",
      "outputs": [
        {
          "internalType": "bool",
          "name": "",
          "type": "bool"
        }
      ],
      "stateMutability": "view",
      "type": "function"
    },
    {
      "inputs": [],
      "name": "makeAnEpicNFT",
      "outputs": [],
      "stateMutability": "nonpayable",
      "type": "function"
    },
    {
      "inputs": [],
      "name": "name",
      "outputs": [
        {
          "internalType": "string",
          "name": "",
          "type": "string"
        }
      ],
      "stateMutability": "view",
      "type": "function"
    },
    {
      "inputs": [
        {
          "internalType": "uint256",
          "name": "tokenId",
          "type": "uint256"
        }
      ],
      "name": "ownerOf",
      "outputs": [
        {
          "internalType": "address",
          "name": "",
          "type": "address"
        }
      ],
      "stateMutability": "view",
      "type": "function"
    },
    {
      "inputs": [
        {
          "internalType": "uint256",
          "name": "tokenId",
          "type": "uint256"
        }
      ],
      "name": "pickRandomColor",
      "outputs": [
        {
          "internalType": "string",
          "name": "",
          "type": "string"
        }
      ],
      "stateMutability": "view",
      "type": "function"
    },
    {
      "inputs": [
        {
          "internalType": "uint256",
          "name": "tokenId",
          "type": "uint256"
        }
      ],
      "name": "pickRandomFirstWord",
      "outputs": [
        {
          "internalType": "string",
          "name": "",
          "type": "string"
        }
      ],
      "stateMutability": "view",
      "type": "function"
    },
    {
      "inputs": [
        {
          "internalType": "uint256",
          "name": "tokenId",
          "type": "uint256"
        }
      ],
      "name": "pickRandomSecondWord",
      "outputs": [
        {
          "internalType": "string",
          "name": "",
          "type": "string"
        }
      ],
      "stateMutability": "view",
      "type": "function"
    },
    {
      "inputs": [
        {
          "internalType": "uint256",
          "name": "tokenId",
          "type": "uint256"
        }
      ],
      "name": "pickRandomThirdWord",
      "outputs": [
        {
          "internalType": "string",
          "name": "",
          "type": "string"
        }
      ],
      "stateMutability": "view",
      "type": "function"
    },
    {
      "inputs": [
        {
          "internalType": "address",
          "name": "from",
          "type": "address"
        },
        {
          "internalType": "address",
          "name": "to",
          "type": "address"
        },
        {
          "internalType": "uint256",
          "name": "tokenId",
          "type": "uint256"
        }
      ],
      "name": "safeTransferFrom",
      "outputs": [],
      "stateMutability": "nonpayable",
      "type": "function"
    },
    {
      "inputs": [
        {
          "internalType": "address",
          "name": "from",
          "type": "address"
        },
        {
          "internalType": "address",
          "name": "to",
          "type": "address"
        },
        {
          "internalType": "uint256",
          "name": "tokenId",
          "type": "uint256"
        },
        {
          "internalType": "bytes",
          "name": "_data",
          "type": "bytes"
        }
      ],
      "name": "safeTransferFrom",
      "outputs": [],
      "stateMutability": "nonpayable",
      "type": "function"
    },
    {
      "inputs": [
        {
          "internalType": "address",
          "name": "operator",
          "type": "address"
        },
        {
          "internalType": "bool",
          "name": "approved",
          "type": "bool"
        }
      ],
      "name": "setApprovalForAll",
      "outputs": [],
      "stateMutability": "nonpayable",
      "type": "function"
    },
    {
      "inputs": [
        {
          "internalType": "bytes4",
          "name": "interfaceId",
          "type": "bytes4"
        }
      ],
      "name": "supportsInterface",
      "outputs": [
        {
          "internalType": "bool",
          "name": "",
          "type": "bool"
        }
      ],
      "stateMutability": "view",
      "type": "function"
    },
    {
      "inputs": [],
      "name": "symbol",
      "outputs": [
        {
          "internalType": "string",
          "name": "",
          "type": "string"
        }
      ],
      "stateMutability": "view",
      "type": "function"
    },
    {
      "inputs": [
        {
          "internalType": "uint256",
          "name": "tokenId",
          "type": "uint256"
        }
      ],
      "name": "tokenURI",
      "outputs": [
        {
          "internalType": "string",
          "name": "",
          "type": "string"
        }
      ],
      "stateMutability": "view",
      "type": "function"
    },
    {
      "inputs": [
        {
          "internalType": "address",
          "name": "from",
          "type": "address"
        },
        {
          "internalType": "address",
          "name": "to",
          "type": "address"
        },
        {
          "internalType": "uint256",
          "name": "tokenId",
          "type": "uint256"
        }
      ],
      "name": "transferFrom",
      "outputs": [],
      "stateMutability": "nonpayable",
      "type": "function"
    }
  ],
  "bytecode": "0x608060405260405180610100016040528060d381526020016200482360d39139600890805190602001906200003692919062000867565b50604051806080016040528060568152602001620048f660569139600990805190602001906200006892919062000867565b506040518060c001604052806040518060400160405280600781526020017f47656e657369730000000000000000000000000000000000000000000000000081525081526020016040518060400160405280600481526020017f436f64610000000000000000000000000000000000000000000000000000000081525081526020016040518060400160405280600481526020017f484f444c0000000000000000000000000000000000000000000000000000000081525081526020016040518060400160405280600581526020017f364665657400000000000000000000000000000000000000000000000000000081525081526020016040518060400160405280600681526020017f48756d6d6572000000000000000000000000000000000000000000000000000081525081526020016040518060400160405280600781526020017f436f6d7061637400000000000000000000000000000000000000000000000000815250815250600a906006620001e6929190620008f8565b506040518060c001604052806040518060400160405280600481526020017f4e696e650000000000000000000000000000000000000000000000000000000081525081526020016040518060400160405280600681526020017f456c6576656e000000000000000000000000000000000000000000000000000081525081526020016040518060400160405280600481526020017f466976650000000000000000000000000000000000000000000000000000000081525081526020016040518060400160405280600381526020017f4f6e65000000000000000000000000000000000000000000000000000000000081525081526020016040518060400160405280600681526020017f5477656e7479000000000000000000000000000000000000000000000000000081525081526020016040518060400160405280600781526020017f5369787465656e00000000000000000000000000000000000000000000000000815250815250600b90600662000364929190620008f8565b506040518060e001604052806040518060400160405280600381526020017f44414f000000000000000000000000000000000000000000000000000000000081525081526020016040518060400160405280600481526020017f446546690000000000000000000000000000000000000000000000000000000081525081526020016040518060400160405280600681526020017f457363726f77000000000000000000000000000000000000000000000000000081525081526020016040518060400160405280600481526020017f495046530000000000000000000000000000000000000000000000000000000081525081526020016040518060400160405280600981526020017f466c6173684c6f616e000000000000000000000000000000000000000000000081525081526020016040518060400160405280600881526020017f547265617375727900000000000000000000000000000000000000000000000081525081526020016040518060400160405280600e81526020017f5669727475616c697a6174696f6e000000000000000000000000000000000000815250815250600c9060076200051d9291906200095f565b506040518060c001604052806040518060400160405280600c81526020017f6c69676874736b79626c7565000000000000000000000000000000000000000081525081526020016040518060400160405280600981526020017f6f72616e6765726564000000000000000000000000000000000000000000000081525081526020016040518060400160405280600481526020017f676f6c640000000000000000000000000000000000000000000000000000000081525081526020016040518060400160405280600681526020017f79656c6c6f77000000000000000000000000000000000000000000000000000081525081526020016040518060400160405280600581526020017f636f72616c00000000000000000000000000000000000000000000000000000081525081526020016040518060400160405280600c81526020017f6d69646e69676874626c75650000000000000000000000000000000000000000815250815250600d9060066200069b929190620008f8565b50348015620006a957600080fd5b506040518060400160405280600f81526020017f5772616e676c65204e6963726f6d6500000000000000000000000000000000008152506040518060400160405280600281526020017f574e00000000000000000000000000000000000000000000000000000000000081525081600090805190602001906200072e92919062000867565b5080600190805190602001906200074792919062000867565b505050620007956040518060400160405280601e81526020017f54686973206973206d79204e465420636f6e74726163742e20576f61682100008152506200079b60201b620012a71760201c565b62000b80565b6200083b81604051602401620007b2919062000a94565b6040516020818303038152906040527f41304fac000000000000000000000000000000000000000000000000000000007bffffffffffffffffffffffffffffffffffffffffffffffffffffffff19166020820180517bffffffffffffffffffffffffffffffffffffffffffffffffffffffff83818316178352505050506200083e60201b60201c565b50565b60008151905060006a636f6e736f6c652e6c6f679050602083016000808483855afa5050505050565b828054620008759062000b0a565b90600052602060002090601f016020900481019282620008995760008555620008e5565b82601f10620008b457805160ff1916838001178555620008e5565b82800160010185558215620008e5579182015b82811115620008e4578251825591602001919060010190620008c7565b5b509050620008f49190620009c6565b5090565b8280548282559060005260206000209081019282156200094c579160200282015b828111156200094b5782518290805190602001906200093a92919062000867565b509160200191906001019062000919565b5b5090506200095b9190620009e5565b5090565b828054828255906000526020600020908101928215620009b3579160200282015b82811115620009b2578251829080519060200190620009a192919062000867565b509160200191906001019062000980565b5b509050620009c29190620009e5565b5090565b5b80821115620009e1576000816000905550600101620009c7565b5090565b5b8082111562000a095760008181620009ff919062000a0d565b50600101620009e6565b5090565b50805462000a1b9062000b0a565b6000825580601f1062000a2f575062000a50565b601f01602090049060005260206000209081019062000a4f9190620009c6565b5b50565b600062000a608262000ab8565b62000a6c818562000ac3565b935062000a7e81856020860162000ad4565b62000a898162000b6f565b840191505092915050565b6000602082019050818103600083015262000ab0818462000a53565b905092915050565b600081519050919050565b600082825260208201905092915050565b60005b8381101562000af457808201518184015260208101905062000ad7565b8381111562000b04576000848401525b50505050565b6000600282049050600182168062000b2357607f821691505b6020821081141562000b3a5762000b3962000b40565b5b50919050565b7f4e487b7100000000000000000000000000000000000000000000000000000000600052602260045260246000fd5b6000601f19601f8301169050919050565b613c938062000b906000396000f3fe608060405234801561001057600080fd5b50600436106101215760003560e01c80636352211e116100ad578063b88d4fde11610071578063b88d4fde14610340578063c575757a1461035c578063c87b56dd1461038c578063de9d132f146103bc578063e985e9c5146103c657610121565b80636352211e1461027657806370a08231146102a657806395d89b41146102d6578063a22cb465146102f4578063b187301f1461031057610121565b8063095ea7b3116100f4578063095ea7b3146101c257806323b872dd146101de5780632de38d68146101fa57806342842e0e1461022a578063514dc8c61461024657610121565b806301ffc9a714610126578063060475901461015657806306fdde0314610174578063081812fc14610192575b600080fd5b610140600480360381019061013b91906126d3565b6103f6565b60405161014d9190612e5f565b60405180910390f35b61015e6104d8565b60405161016b91906130fa565b60405180910390f35b61017c6104e9565b6040516101899190612e7a565b60405180910390f35b6101ac60048036038101906101a79190612725565b61057b565b6040516101b99190612dcf565b60405180910390f35b6101dc60048036038101906101d79190612697565b610600565b005b6101f860048036038101906101f39190612591565b610718565b005b610214600480360381019061020f9190612725565b610778565b6040516102219190612e7a565b60405180910390f35b610244600480360381019061023f9190612591565b610896565b005b610260600480360381019061025b9190612725565b6108b6565b60405161026d9190612e7a565b60405180910390f35b610290600480360381019061028b9190612725565b6109d4565b60405161029d9190612dcf565b60405180910390f35b6102c060048036038101906102bb919061252c565b610a86565b6040516102cd91906130fa565b60405180910390f35b6102de610b3e565b6040516102eb9190612e7a565b60405180910390f35b61030e6004803603810190610309919061265b565b610bd0565b005b61032a60048036038101906103259190612725565b610be6565b6040516103379190612e7a565b60405180910390f35b61035a600480360381019061035591906125e0565b610d04565b005b61037660048036038101906103719190612725565b610d66565b6040516103839190612e7a565b60405180910390f35b6103a660048036038101906103a19190612725565b610e84565b6040516103b39190612e7a565b60405180910390f35b6103c4610fd6565b005b6103e060048036038101906103db9190612555565b611213565b6040516103ed9190612e5f565b60405180910390f35b60007f80ac58cd000000000000000000000000000000000000000000000000000000007bffffffffffffffffffffffffffffffffffffffffffffffffffffffff1916827bffffffffffffffffffffffffffffffffffffffffffffffffffffffff191614806104c157507f5b5e139f000000000000000000000000000000000000000000000000000000007bffffffffffffffffffffffffffffffffffffffffffffffffffffffff1916827bffffffffffffffffffffffffffffffffffffffffffffffffffffffff1916145b806104d157506104d082611340565b5b9050919050565b60006104e460076113aa565b905090565b6060600080546104f89061338e565b80601f01602080910402602001604051908101604052809291908181526020018280546105249061338e565b80156105715780601f1061054657610100808354040283529160200191610571565b820191906000526020600020905b81548152906001019060200180831161055457829003601f168201915b5050505050905090565b6000610586826113b8565b6105c5576040517f08c379a00000000000000000000000000000000000000000000000000000000081526004016105bc9061307a565b60405180910390fd5b6004600083815260200190815260200160002060009054906101000a900473ffffffffffffffffffffffffffffffffffffffff169050919050565b600061060b826109d4565b90508073ffffffffffffffffffffffffffffffffffffffff168373ffffffffffffffffffffffffffffffffffffffff16141561067c576040517f08c379a0000000000000000000000000000000000000000000000000000000008152600401610673906130ba565b60405180910390fd5b8073ffffffffffffffffffffffffffffffffffffffff1661069b611424565b73ffffffffffffffffffffffffffffffffffffffff1614806106ca57506106c9816106c4611424565b611213565b5b610709576040517f08c379a000000000000000000000000000000000000000000000000000000000815260040161070090612fba565b60405180910390fd5b610713838361142c565b505050565b610729610723611424565b826114e5565b610768576040517f08c379a000000000000000000000000000000000000000000000000000000000815260040161075f906130da565b60405180910390fd5b6107738383836115c3565b505050565b606060006107ac6107888461182a565b6040516020016107989190612d69565b6040516020818303038152906040526119d7565b9050600a80549050816107bf919061343a565b9050600a81815481106107fb577f4e487b7100000000000000000000000000000000000000000000000000000000600052603260045260246000fd5b9060005260206000200180546108109061338e565b80601f016020809104026020016040519081016040528092919081815260200182805461083c9061338e565b80156108895780601f1061085e57610100808354040283529160200191610889565b820191906000526020600020905b81548152906001019060200180831161086c57829003601f168201915b5050505050915050919050565b6108b183838360405180602001604052806000815250610d04565b505050565b606060006108ea6108c68461182a565b6040516020016108d69190612dad565b6040516020818303038152906040526119d7565b9050600d80549050816108fd919061343a565b9050600d8181548110610939577f4e487b7100000000000000000000000000000000000000000000000000000000600052603260045260246000fd5b90600052602060002001805461094e9061338e565b80601f016020809104026020016040519081016040528092919081815260200182805461097a9061338e565b80156109c75780601f1061099c576101008083540402835291602001916109c7565b820191906000526020600020905b8154815290600101906020018083116109aa57829003601f168201915b5050505050915050919050565b6000806002600084815260200190815260200160002060009054906101000a900473ffffffffffffffffffffffffffffffffffffffff169050600073ffffffffffffffffffffffffffffffffffffffff168173ffffffffffffffffffffffffffffffffffffffff161415610a7d576040517f08c379a0000000000000000000000000000000000000000000000000000000008152600401610a7490612ffa565b60405180910390fd5b80915050919050565b60008073ffffffffffffffffffffffffffffffffffffffff168273ffffffffffffffffffffffffffffffffffffffff161415610af7576040517f08c379a0000000000000000000000000000000000000000000000000000000008152600401610aee90612fda565b60405180910390fd5b600360008373ffffffffffffffffffffffffffffffffffffffff1673ffffffffffffffffffffffffffffffffffffffff168152602001908152602001600020549050919050565b606060018054610b4d9061338e565b80601f0160208091040260200160405190810160405280929190818152602001828054610b799061338e565b8015610bc65780601f10610b9b57610100808354040283529160200191610bc6565b820191906000526020600020905b815481529060010190602001808311610ba957829003601f168201915b5050505050905090565b610be2610bdb611424565b8383611a0a565b5050565b60606000610c1a610bf68461182a565b604051602001610c069190612d02565b6040516020818303038152906040526119d7565b9050600b8054905081610c2d919061343a565b9050600b8181548110610c69577f4e487b7100000000000000000000000000000000000000000000000000000000600052603260045260246000fd5b906000526020600020018054610c7e9061338e565b80601f0160208091040260200160405190810160405280929190818152602001828054610caa9061338e565b8015610cf75780601f10610ccc57610100808354040283529160200191610cf7565b820191906000526020600020905b815481529060010190602001808311610cda57829003601f168201915b5050505050915050919050565b610d15610d0f611424565b836114e5565b610d54576040517f08c379a0000000000000000000000000000000000000000000000000000000008152600401610d4b906130da565b60405180910390fd5b610d6084848484611b77565b50505050565b60606000610d9a610d768461182a565b604051602001610d869190612ce0565b6040516020818303038152906040526119d7565b9050600c8054905081610dad919061343a565b9050600c8181548110610de9577f4e487b7100000000000000000000000000000000000000000000000000000000600052603260045260246000fd5b906000526020600020018054610dfe9061338e565b80601f0160208091040260200160405190810160405280929190818152602001828054610e2a9061338e565b8015610e775780601f10610e4c57610100808354040283529160200191610e77565b820191906000526020600020905b815481529060010190602001808311610e5a57829003601f168201915b5050505050915050919050565b6060610e8f826113b8565b610ece576040517f08c379a0000000000000000000000000000000000000000000000000000000008152600401610ec59061305a565b60405180910390fd5b6000600660008481526020019081526020016000208054610eee9061338e565b80601f0160208091040260200160405190810160405280929190818152602001828054610f1a9061338e565b8015610f675780601f10610f3c57610100808354040283529160200191610f67565b820191906000526020600020905b815481529060010190602001808311610f4a57829003601f168201915b505050505090506000610f78611bd3565b9050600081511415610f8e578192505050610fd1565b600082511115610fc3578082604051602001610fab929190612c42565b60405160208183030381529060405292505050610fd1565b610fcc84611bea565b925050505b919050565b6000610fe260076113aa565b905060328110611027576040517f08c379a000000000000000000000000000000000000000000000000000000000815260040161101e90612f3a565b60405180910390fd5b600061103282610778565b9050600061103f83610be6565b9050600061104c84610d66565b9050600083838360405160200161106593929190612c66565b60405160208183030381529060405290506000611081866108b6565b9050600060088260098560405160200161109e9493929190612c97565b604051602081830303815290604052905060006110e3876110be84611c91565b6040516020016110cf929190612d24565b604051602081830303815290604052611c91565b90506000816040516020016110f89190612d8b565b60405160208183030381529060405290506111476040518060400160405280601581526020017f0a2d2d2d2d2d2d2d2d2d2d2d2d2d2d2d2d2d2d2d2d00000000000000000000008152506112a7565b611150816112a7565b61118e6040518060400160405280601581526020017f2d2d2d2d2d2d2d2d2d2d2d2d2d2d2d2d2d2d2d2d0a00000000000000000000008152506112a7565b611198338a611e4f565b6111a28982611e6d565b6111ac6007611ee1565b6111cf604051806060016040528060258152602001613bf9602591398a33611ef7565b7febb98688741ffa4c7589bf325de30cf7becb63de567842e1ccdb6cb949fdc82c338a604051611200929190612e36565b60405180910390a1505050505050505050565b6000600560008473ffffffffffffffffffffffffffffffffffffffff1673ffffffffffffffffffffffffffffffffffffffff16815260200190815260200160002060008373ffffffffffffffffffffffffffffffffffffffff1673ffffffffffffffffffffffffffffffffffffffff16815260200190815260200160002060009054906101000a900460ff16905092915050565b61133d816040516024016112bb9190612e7a565b6040516020818303038152906040527f41304fac000000000000000000000000000000000000000000000000000000007bffffffffffffffffffffffffffffffffffffffffffffffffffffffff19166020820180517bffffffffffffffffffffffffffffffffffffffffffffffffffffffff8381831617835250505050611f96565b50565b60007f01ffc9a7000000000000000000000000000000000000000000000000000000007bffffffffffffffffffffffffffffffffffffffffffffffffffffffff1916827bffffffffffffffffffffffffffffffffffffffffffffffffffffffff1916149050919050565b600081600001549050919050565b60008073ffffffffffffffffffffffffffffffffffffffff166002600084815260200190815260200160002060009054906101000a900473ffffffffffffffffffffffffffffffffffffffff1673ffffffffffffffffffffffffffffffffffffffff1614159050919050565b600033905090565b816004600083815260200190815260200160002060006101000a81548173ffffffffffffffffffffffffffffffffffffffff021916908373ffffffffffffffffffffffffffffffffffffffff160217905550808273ffffffffffffffffffffffffffffffffffffffff1661149f836109d4565b73ffffffffffffffffffffffffffffffffffffffff167f8c5be1e5ebec7d5bd14f71427d1e84f3dd0314c0f7b2291e5b200ac8c7c3b92560405160405180910390a45050565b60006114f0826113b8565b61152f576040517f08c379a000000000000000000000000000000000000000000000000000000000815260040161152690612f9a565b60405180910390fd5b600061153a836109d4565b90508073ffffffffffffffffffffffffffffffffffffffff168473ffffffffffffffffffffffffffffffffffffffff16148061157c575061157b8185611213565b5b806115ba57508373ffffffffffffffffffffffffffffffffffffffff166115a28461057b565b73ffffffffffffffffffffffffffffffffffffffff16145b91505092915050565b8273ffffffffffffffffffffffffffffffffffffffff166115e3826109d4565b73ffffffffffffffffffffffffffffffffffffffff1614611639576040517f08c379a000000000000000000000000000000000000000000000000000000000815260040161163090612efa565b60405180910390fd5b600073ffffffffffffffffffffffffffffffffffffffff168273ffffffffffffffffffffffffffffffffffffffff1614156116a9576040517f08c379a00000000000000000000000000000000000000000000000000000000081526004016116a090612f5a565b60405180910390fd5b6116b4838383611fbf565b6116bf60008261142c565b6001600360008573ffffffffffffffffffffffffffffffffffffffff1673ffffffffffffffffffffffffffffffffffffffff168152602001908152602001600020600082825461170f91906132a4565b925050819055506001600360008473ffffffffffffffffffffffffffffffffffffffff1673ffffffffffffffffffffffffffffffffffffffff168152602001908152602001600020600082825461176691906131c3565b92505081905550816002600083815260200190815260200160002060006101000a81548173ffffffffffffffffffffffffffffffffffffffff021916908373ffffffffffffffffffffffffffffffffffffffff160217905550808273ffffffffffffffffffffffffffffffffffffffff168473ffffffffffffffffffffffffffffffffffffffff167fddf252ad1be2c89b69c2b068fc378daa952ba7f163c4a11628f55a4df523b3ef60405160405180910390a4611825838383611fc4565b505050565b60606000821415611872576040518060400160405280600181526020017f300000000000000000000000000000000000000000000000000000000000000081525090506119d2565b600082905060005b600082146118a457808061188d906133f1565b915050600a8261189d9190613219565b915061187a565b60008167ffffffffffffffff8111156118e6577f4e487b7100000000000000000000000000000000000000000000000000000000600052604160045260246000fd5b6040519080825280601f01601f1916602001820160405280156119185781602001600182028036833780820191505090505b5090505b600085146119cb5760018261193191906132a4565b9150600a85611940919061343a565b603061194c91906131c3565b60f81b818381518110611988577f4e487b7100000000000000000000000000000000000000000000000000000000600052603260045260246000fd5b60200101907effffffffffffffffffffffffffffffffffffffffffffffffffffffffffffff1916908160001a905350600a856119c49190613219565b945061191c565b8093505050505b919050565b6000816040516020016119ea9190612c2b565b6040516020818303038152906040528051906020012060001c9050919050565b8173ffffffffffffffffffffffffffffffffffffffff168373ffffffffffffffffffffffffffffffffffffffff161415611a79576040517f08c379a0000000000000000000000000000000000000000000000000000000008152600401611a7090612f7a565b60405180910390fd5b80600560008573ffffffffffffffffffffffffffffffffffffffff1673ffffffffffffffffffffffffffffffffffffffff16815260200190815260200160002060008473ffffffffffffffffffffffffffffffffffffffff1673ffffffffffffffffffffffffffffffffffffffff16815260200190815260200160002060006101000a81548160ff0219169083151502179055508173ffffffffffffffffffffffffffffffffffffffff168373ffffffffffffffffffffffffffffffffffffffff167f17307eab39ab6107e8899845ad3d59bd9653f200f220920489ca2b5937696c3183604051611b6a9190612e5f565b60405180910390a3505050565b611b828484846115c3565b611b8e84848484611fc9565b611bcd576040517f08c379a0000000000000000000000000000000000000000000000000000000008152600401611bc490612eda565b60405180910390fd5b50505050565b606060405180602001604052806000815250905090565b6060611bf5826113b8565b611c34576040517f08c379a0000000000000000000000000000000000000000000000000000000008152600401611c2b9061309a565b60405180910390fd5b6000611c3e611bd3565b90506000815111611c5e5760405180602001604052806000815250611c89565b80611c688461182a565b604051602001611c79929190612c42565b6040516020818303038152906040525b915050919050565b60606000825190506000811415611cba5760405180602001604052806000815250915050611e4a565b60006003600283611ccb91906131c3565b611cd59190613219565b6004611ce1919061324a565b90506000602082611cf291906131c3565b67ffffffffffffffff811115611d31577f4e487b7100000000000000000000000000000000000000000000000000000000600052604160045260246000fd5b6040519080825280601f01601f191660200182016040528015611d635781602001600182028036833780820191505090505b5090506000604051806060016040528060408152602001613c1e604091399050600181016020830160005b86811015611e075760038101905062ffffff818a015116603f8160121c168401518060081b905060ff603f83600c1c1686015116810190508060081b905060ff603f8360061c1686015116810190508060081b905060ff603f831686015116810190508060e01b90508084526004840193505050611d8e565b506003860660018114611e215760028114611e3157611e3c565b613d3d60f01b6002830352611e3c565b603d60f81b60018303525b508484525050819450505050505b919050565b611e69828260405180602001604052806000815250612160565b5050565b611e76826113b8565b611eb5576040517f08c379a0000000000000000000000000000000000000000000000000000000008152600401611eac9061301a565b60405180910390fd5b80600660008481526020019081526020016000209080519060200190611edc9291906123b8565b505050565b6001816000016000828254019250508190555050565b611f91838383604051602401611f0f93929190612e9c565b6040516020818303038152906040527fe3849f79000000000000000000000000000000000000000000000000000000007bffffffffffffffffffffffffffffffffffffffffffffffffffffffff19166020820180517bffffffffffffffffffffffffffffffffffffffffffffffffffffffff8381831617835250505050611f96565b505050565b60008151905060006a636f6e736f6c652e6c6f679050602083016000808483855afa5050505050565b505050565b505050565b6000611fea8473ffffffffffffffffffffffffffffffffffffffff166121bb565b15612153578373ffffffffffffffffffffffffffffffffffffffff1663150b7a02612013611424565b8786866040518563ffffffff1660e01b81526004016120359493929190612dea565b602060405180830381600087803b15801561204f57600080fd5b505af192505050801561208057506040513d601f19601f8201168201806040525081019061207d91906126fc565b60015b612103573d80600081146120b0576040519150601f19603f3d011682016040523d82523d6000602084013e6120b5565b606091505b506000815114156120fb576040517f08c379a00000000000000000000000000000000000000000000000000000000081526004016120f290612eda565b60405180910390fd5b805181602001fd5b63150b7a0260e01b7bffffffffffffffffffffffffffffffffffffffffffffffffffffffff1916817bffffffffffffffffffffffffffffffffffffffffffffffffffffffff191614915050612158565b600190505b949350505050565b61216a83836121de565b6121776000848484611fc9565b6121b6576040517f08c379a00000000000000000000000000000000000000000000000000000000081526004016121ad90612eda565b60405180910390fd5b505050565b6000808273ffffffffffffffffffffffffffffffffffffffff163b119050919050565b600073ffffffffffffffffffffffffffffffffffffffff168273ffffffffffffffffffffffffffffffffffffffff16141561224e576040517f08c379a00000000000000000000000000000000000000000000000000000000081526004016122459061303a565b60405180910390fd5b612257816113b8565b15612297576040517f08c379a000000000000000000000000000000000000000000000000000000000815260040161228e90612f1a565b60405180910390fd5b6122a360008383611fbf565b6001600360008473ffffffffffffffffffffffffffffffffffffffff1673ffffffffffffffffffffffffffffffffffffffff16815260200190815260200160002060008282546122f391906131c3565b92505081905550816002600083815260200190815260200160002060006101000a81548173ffffffffffffffffffffffffffffffffffffffff021916908373ffffffffffffffffffffffffffffffffffffffff160217905550808273ffffffffffffffffffffffffffffffffffffffff16600073ffffffffffffffffffffffffffffffffffffffff167fddf252ad1be2c89b69c2b068fc378daa952ba7f163c4a11628f55a4df523b3ef60405160405180910390a46123b460008383611fc4565b5050565b8280546123c49061338e565b90600052602060002090601f0160209004810192826123e6576000855561242d565b82601f106123ff57805160ff191683800117855561242d565b8280016001018555821561242d579182015b8281111561242c578251825591602001919060010190612411565b5b50905061243a919061243e565b5090565b5b8082111561245757600081600090555060010161243f565b5090565b600061246e6124698461313a565b613115565b90508281526020810184848401111561248657600080fd5b61249184828561334c565b509392505050565b6000813590506124a881613b9c565b92915050565b6000813590506124bd81613bb3565b92915050565b6000813590506124d281613bca565b92915050565b6000815190506124e781613bca565b92915050565b600082601f8301126124fe57600080fd5b813561250e84826020860161245b565b91505092915050565b60008135905061252681613be1565b92915050565b60006020828403121561253e57600080fd5b600061254c84828501612499565b91505092915050565b6000806040838503121561256857600080fd5b600061257685828601612499565b925050602061258785828601612499565b9150509250929050565b6000806000606084860312156125a657600080fd5b60006125b486828701612499565b93505060206125c586828701612499565b92505060406125d686828701612517565b9150509250925092565b600080600080608085870312156125f657600080fd5b600061260487828801612499565b945050602061261587828801612499565b935050604061262687828801612517565b925050606085013567ffffffffffffffff81111561264357600080fd5b61264f878288016124ed565b91505092959194509250565b6000806040838503121561266e57600080fd5b600061267c85828601612499565b925050602061268d858286016124ae565b9150509250929050565b600080604083850312156126aa57600080fd5b60006126b885828601612499565b92505060206126c985828601612517565b9150509250929050565b6000602082840312156126e557600080fd5b60006126f3848285016124c3565b91505092915050565b60006020828403121561270e57600080fd5b600061271c848285016124d8565b91505092915050565b60006020828403121561273757600080fd5b600061274584828501612517565b91505092915050565b612757816132d8565b82525050565b612766816132ea565b82525050565b600061277782613180565b6127818185613196565b935061279181856020860161335b565b61279a81613527565b840191505092915050565b60006127b08261318b565b6127ba81856131a7565b93506127ca81856020860161335b565b6127d381613527565b840191505092915050565b60006127e98261318b565b6127f381856131b8565b935061280381856020860161335b565b80840191505092915050565b6000815461281c8161338e565b61282681866131b8565b94506001821660008114612841576001811461285257612885565b60ff19831686528186019350612885565b61285b8561316b565b60005b8381101561287d5781548189015260018201915060208101905061285e565b838801955050505b50505092915050565b600061289b6032836131a7565b91506128a682613538565b604082019050919050565b60006128be6025836131a7565b91506128c982613587565b604082019050919050565b60006128e1601c836131a7565b91506128ec826135d6565b602082019050919050565b6000612904600a836131b8565b915061290f826135ff565b600a82019050919050565b6000612927601e836131a7565b915061293282613628565b602082019050919050565b600061294a6024836131a7565b915061295582613651565b604082019050919050565b600061296d6019836131a7565b9150612978826136a0565b602082019050919050565b6000612990600b836131b8565b915061299b826136c9565b600b82019050919050565b60006129b3602c836131a7565b91506129be826136f2565b604082019050919050565b60006129d6600d836131b8565b91506129e182613741565b600d82019050919050565b60006129f96053836131b8565b9150612a048261376a565b605382019050919050565b6000612a1c6038836131a7565b9150612a27826137df565b604082019050919050565b6000612a3f602a836131a7565b9150612a4a8261382e565b604082019050919050565b6000612a626029836131a7565b9150612a6d8261387d565b604082019050919050565b6000612a85602e836131a7565b9150612a90826138cc565b604082019050919050565b6000612aa86002836131b8565b9150612ab38261391b565b600282019050919050565b6000612acb6020836131a7565b9150612ad682613944565b602082019050919050565b6000612aee6031836131a7565b9150612af98261396d565b604082019050919050565b6000612b11602c836131a7565b9150612b1c826139bc565b604082019050919050565b6000612b34602f836131a7565b9150612b3f82613a0b565b604082019050919050565b6000612b57600a836131b8565b9150612b6282613a5a565b600a82019050919050565b6000612b7a6021836131a7565b9150612b8582613a83565b604082019050919050565b6000612b9d600a836131b8565b9150612ba882613ad2565b600a82019050919050565b6000612bc0601d836131b8565b9150612bcb82613afb565b601d82019050919050565b6000612be36031836131a7565b9150612bee82613b24565b604082019050919050565b6000612c066005836131b8565b9150612c1182613b73565b600582019050919050565b612c2581613342565b82525050565b6000612c3782846127de565b915081905092915050565b6000612c4e82856127de565b9150612c5a82846127de565b91508190509392505050565b6000612c7282866127de565b9150612c7e82856127de565b9150612c8a82846127de565b9150819050949350505050565b6000612ca3828761280f565b9150612caf82866127de565b9150612cbb828561280f565b9150612cc782846127de565b9150612cd2826129c9565b915081905095945050505050565b6000612ceb826128f7565b9150612cf782846127de565b915081905092915050565b6000612d0d82612983565b9150612d1982846127de565b915081905092915050565b6000612d2f82612b4a565b9150612d3b82856127de565b9150612d46826129ec565b9150612d5282846127de565b9150612d5d82612a9b565b91508190509392505050565b6000612d7482612b90565b9150612d8082846127de565b915081905092915050565b6000612d9682612bb3565b9150612da282846127de565b915081905092915050565b6000612db882612bf9565b9150612dc482846127de565b915081905092915050565b6000602082019050612de4600083018461274e565b92915050565b6000608082019050612dff600083018761274e565b612e0c602083018661274e565b612e196040830185612c1c565b8181036060830152612e2b818461276c565b905095945050505050565b6000604082019050612e4b600083018561274e565b612e586020830184612c1c565b9392505050565b6000602082019050612e74600083018461275d565b92915050565b60006020820190508181036000830152612e9481846127a5565b905092915050565b60006060820190508181036000830152612eb681866127a5565b9050612ec56020830185612c1c565b612ed2604083018461274e565b949350505050565b60006020820190508181036000830152612ef38161288e565b9050919050565b60006020820190508181036000830152612f13816128b1565b9050919050565b60006020820190508181036000830152612f33816128d4565b9050919050565b60006020820190508181036000830152612f538161291a565b9050919050565b60006020820190508181036000830152612f738161293d565b9050919050565b60006020820190508181036000830152612f9381612960565b9050919050565b60006020820190508181036000830152612fb3816129a6565b9050919050565b60006020820190508181036000830152612fd381612a0f565b9050919050565b60006020820190508181036000830152612ff381612a32565b9050919050565b6000602082019050818103600083015261301381612a55565b9050919050565b6000602082019050818103600083015261303381612a78565b9050919050565b6000602082019050818103600083015261305381612abe565b9050919050565b6000602082019050818103600083015261307381612ae1565b9050919050565b6000602082019050818103600083015261309381612b04565b9050919050565b600060208201905081810360008301526130b381612b27565b9050919050565b600060208201905081810360008301526130d381612b6d565b9050919050565b600060208201905081810360008301526130f381612bd6565b9050919050565b600060208201905061310f6000830184612c1c565b92915050565b600061311f613130565b905061312b82826133c0565b919050565b6000604051905090565b600067ffffffffffffffff821115613155576131546134f8565b5b61315e82613527565b9050602081019050919050565b60008190508160005260206000209050919050565b600081519050919050565b600081519050919050565b600082825260208201905092915050565b600082825260208201905092915050565b600081905092915050565b60006131ce82613342565b91506131d983613342565b9250827fffffffffffffffffffffffffffffffffffffffffffffffffffffffffffffffff0382111561320e5761320d61346b565b5b828201905092915050565b600061322482613342565b915061322f83613342565b92508261323f5761323e61349a565b5b828204905092915050565b600061325582613342565b915061326083613342565b9250817fffffffffffffffffffffffffffffffffffffffffffffffffffffffffffffffff04831182151516156132995761329861346b565b5b828202905092915050565b60006132af82613342565b91506132ba83613342565b9250828210156132cd576132cc61346b565b5b828203905092915050565b60006132e382613322565b9050919050565b60008115159050919050565b60007fffffffff0000000000000000000000000000000000000000000000000000000082169050919050565b600073ffffffffffffffffffffffffffffffffffffffff82169050919050565b6000819050919050565b82818337600083830152505050565b60005b8381101561337957808201518184015260208101905061335e565b83811115613388576000848401525b50505050565b600060028204905060018216806133a657607f821691505b602082108114156133ba576133b96134c9565b5b50919050565b6133c982613527565b810181811067ffffffffffffffff821117156133e8576133e76134f8565b5b80604052505050565b60006133fc82613342565b91507fffffffffffffffffffffffffffffffffffffffffffffffffffffffffffffffff82141561342f5761342e61346b565b5b600182019050919050565b600061344582613342565b915061345083613342565b9250826134605761345f61349a565b5b828206905092915050565b7f4e487b7100000000000000000000000000000000000000000000000000000000600052601160045260246000fd5b7f4e487b7100000000000000000000000000000000000000000000000000000000600052601260045260246000fd5b7f4e487b7100000000000000000000000000000000000000000000000000000000600052602260045260246000fd5b7f4e487b7100000000000000000000000000000000000000000000000000000000600052604160045260246000fd5b6000601f19601f8301169050919050565b7f4552433732313a207472616e7366657220746f206e6f6e20455243373231526560008201527f63656976657220696d706c656d656e7465720000000000000000000000000000602082015250565b7f4552433732313a207472616e736665722066726f6d20696e636f72726563742060008201527f6f776e6572000000000000000000000000000000000000000000000000000000602082015250565b7f4552433732313a20746f6b656e20616c7265616479206d696e74656400000000600082015250565b7f54484952445f574f524400000000000000000000000000000000000000000000600082015250565b7f534f4c44204f5554207c7c204d696e74206c696d697420726561636865640000600082015250565b7f4552433732313a207472616e7366657220746f20746865207a65726f2061646460008201527f7265737300000000000000000000000000000000000000000000000000000000602082015250565b7f4552433732313a20617070726f766520746f2063616c6c657200000000000000600082015250565b7f5345434f4e445f574f5244000000000000000000000000000000000000000000600082015250565b7f4552433732313a206f70657261746f7220717565727920666f72206e6f6e657860008201527f697374656e7420746f6b656e0000000000000000000000000000000000000000602082015250565b7f3c2f746578743e3c2f7376673e00000000000000000000000000000000000000600082015250565b7f222c20226465736372697074696f6e223a202241205772616e676c65204e696360008201527f68726f6d65204272616e642e222c2022696d616765223a2022646174613a696d60208201527f6167652f7376672b786d6c3b6261736536342c00000000000000000000000000604082015250565b7f4552433732313a20617070726f76652063616c6c6572206973206e6f74206f7760008201527f6e6572206e6f7220617070726f76656420666f7220616c6c0000000000000000602082015250565b7f4552433732313a2062616c616e636520717565727920666f7220746865207a6560008201527f726f206164647265737300000000000000000000000000000000000000000000602082015250565b7f4552433732313a206f776e657220717565727920666f72206e6f6e657869737460008201527f656e7420746f6b656e0000000000000000000000000000000000000000000000602082015250565b7f45524337323155524953746f726167653a2055524920736574206f66206e6f6e60008201527f6578697374656e7420746f6b656e000000000000000000000000000000000000602082015250565b7f227d000000000000000000000000000000000000000000000000000000000000600082015250565b7f4552433732313a206d696e7420746f20746865207a65726f2061646472657373600082015250565b7f45524337323155524953746f726167653a2055524920717565727920666f722060008201527f6e6f6e6578697374656e7420746f6b656e000000000000000000000000000000602082015250565b7f4552433732313a20617070726f76656420717565727920666f72206e6f6e657860008201527f697374656e7420746f6b656e0000000000000000000000000000000000000000602082015250565b7f4552433732314d657461646174613a2055524920717565727920666f72206e6f60008201527f6e6578697374656e7420746f6b656e0000000000000000000000000000000000602082015250565b7f7b226e616d65223a202200000000000000000000000000000000000000000000600082015250565b7f4552433732313a20617070726f76616c20746f2063757272656e74206f776e6560008201527f7200000000000000000000000000000000000000000000000000000000000000602082015250565b7f46495253545f574f524400000000000000000000000000000000000000000000600082015250565b7f646174613a6170706c69636174696f6e2f6a736f6e3b6261736536342c000000600082015250565b7f4552433732313a207472616e736665722063616c6c6572206973206e6f74206f60008201527f776e6572206e6f7220617070726f766564000000000000000000000000000000602082015250565b7f434f4c4f52000000000000000000000000000000000000000000000000000000600082015250565b613ba5816132d8565b8114613bb057600080fd5b50565b613bbc816132ea565b8114613bc757600080fd5b50565b613bd3816132f6565b8114613bde57600080fd5b50565b613bea81613342565b8114613bf557600080fd5b5056fe416e204e465420772f20494420257320686173206265656e206d696e74656420746f2025734142434445464748494a4b4c4d4e4f505152535455565758595a6162636465666768696a6b6c6d6e6f707172737475767778797a303132333435363738392b2fa264697066735822122077cabfe046165ccf3b5429774b971dc90f9a438bfdeca773921640255466ed5564736f6c634300080100333c73766720786d6c6e733d27687474703a2f2f7777772e77332e6f72672f323030302f73766727207072657365727665417370656374526174696f3d27784d696e594d696e206d656574272076696577426f783d273020302033353020333530273e3c7374796c653e2e62617365207b2066696c6c3a2077686974653b20666f6e742d66616d696c793a2073657269663b20666f6e742d73697a653a20323470783b207d3c2f7374796c653e3c726563742077696474683d273130302527206865696768743d2731303025272066696c6c3d27272f3e3c7465787420783d273530252720793d273530252720636c6173733d27626173652720646f6d696e616e742d626173656c696e653d276d6964646c652720746578742d616e63686f723d276d6964646c65273e",
  "linkReferences": {},
  "deployedLinkReferences": {}
}